{
  "contractName": "TBTCSystemStub",
  "abi": [
    {
      "inputs": [
        {
          "internalType": "address",
          "name": "_priceFeed",
          "type": "address"
        },
        {
          "internalType": "address",
          "name": "_relay",
          "type": "address"
        }
      ],
      "payable": false,
      "stateMutability": "nonpayable",
      "type": "constructor"
    },
    {
      "anonymous": false,
      "inputs": [
        {
          "indexed": false,
          "internalType": "bool",
          "name": "_allowNewDeposits",
          "type": "bool"
        }
      ],
      "name": "AllowNewDepositsUpdated",
      "type": "event"
    },
    {
      "anonymous": false,
      "inputs": [
        {
          "indexed": false,
          "internalType": "uint16",
          "name": "_initialCollateralizedPercent",
          "type": "uint16"
        },
        {
          "indexed": false,
          "internalType": "uint16",
          "name": "_undercollateralizedThresholdPercent",
          "type": "uint16"
        },
        {
          "indexed": false,
          "internalType": "uint16",
          "name": "_severelyUndercollateralizedThresholdPercent",
          "type": "uint16"
        },
        {
          "indexed": false,
          "internalType": "uint256",
          "name": "_timestamp",
          "type": "uint256"
        }
      ],
      "name": "CollateralizationThresholdsUpdateStarted",
      "type": "event"
    },
    {
      "anonymous": false,
      "inputs": [
        {
          "indexed": false,
          "internalType": "uint16",
          "name": "_initialCollateralizedPercent",
          "type": "uint16"
        },
        {
          "indexed": false,
          "internalType": "uint16",
          "name": "_undercollateralizedThresholdPercent",
          "type": "uint16"
        },
        {
          "indexed": false,
          "internalType": "uint16",
          "name": "_severelyUndercollateralizedThresholdPercent",
          "type": "uint16"
        }
      ],
      "name": "CollateralizationThresholdsUpdated",
      "type": "event"
    },
    {
      "anonymous": false,
      "inputs": [
        {
          "indexed": true,
          "internalType": "address",
          "name": "_depositContractAddress",
          "type": "address"
        },
        {
          "indexed": false,
          "internalType": "uint256",
          "name": "_timestamp",
          "type": "uint256"
        }
      ],
      "name": "CourtesyCalled",
      "type": "event"
    },
    {
      "anonymous": false,
      "inputs": [
        {
          "indexed": true,
          "internalType": "address",
          "name": "_depositContractAddress",
          "type": "address"
        },
        {
          "indexed": true,
          "internalType": "address",
          "name": "_keepAddress",
          "type": "address"
        },
        {
          "indexed": false,
          "internalType": "uint256",
          "name": "_timestamp",
          "type": "uint256"
        }
      ],
      "name": "Created",
      "type": "event"
    },
    {
      "anonymous": false,
      "inputs": [
        {
          "indexed": false,
          "internalType": "address",
          "name": "_priceFeed",
          "type": "address"
        }
      ],
      "name": "EthBtcPriceFeedAdded",
      "type": "event"
    },
    {
      "anonymous": false,
      "inputs": [
        {
          "indexed": false,
          "internalType": "address",
          "name": "_priceFeed",
          "type": "address"
        },
        {
          "indexed": false,
          "internalType": "uint256",
          "name": "_timestamp",
          "type": "uint256"
        }
      ],
      "name": "EthBtcPriceFeedAdditionStarted",
      "type": "event"
    },
    {
      "anonymous": false,
      "inputs": [
        {
          "indexed": true,
          "internalType": "address",
          "name": "_depositContractAddress",
          "type": "address"
        },
        {
          "indexed": false,
          "internalType": "uint256",
          "name": "_timestamp",
          "type": "uint256"
        }
      ],
      "name": "ExitedCourtesyCall",
      "type": "event"
    },
    {
      "anonymous": false,
      "inputs": [
        {
          "indexed": true,
          "internalType": "address",
          "name": "_depositContractAddress",
          "type": "address"
        },
        {
          "indexed": false,
          "internalType": "uint256",
          "name": "_timestamp",
          "type": "uint256"
        }
      ],
      "name": "FraudDuringSetup",
      "type": "event"
    },
    {
      "anonymous": false,
      "inputs": [
        {
          "indexed": true,
          "internalType": "address",
          "name": "_depositContractAddress",
          "type": "address"
        },
        {
          "indexed": true,
          "internalType": "bytes32",
          "name": "_txid",
          "type": "bytes32"
        },
        {
          "indexed": false,
          "internalType": "uint256",
          "name": "_timestamp",
          "type": "uint256"
        }
      ],
      "name": "Funded",
      "type": "event"
    },
    {
      "anonymous": false,
      "inputs": [
        {
          "indexed": true,
          "internalType": "address",
          "name": "_depositContractAddress",
          "type": "address"
        },
        {
          "indexed": false,
          "internalType": "bytes",
          "name": "_abortOutputScript",
          "type": "bytes"
        }
      ],
      "name": "FunderAbortRequested",
      "type": "event"
    },
    {
      "anonymous": false,
      "inputs": [
        {
          "indexed": true,
          "internalType": "address",
          "name": "_depositContractAddress",
          "type": "address"
        },
        {
          "indexed": true,
          "internalType": "bytes32",
          "name": "_digest",
          "type": "bytes32"
        },
        {
          "indexed": false,
          "internalType": "bytes32",
          "name": "_r",
          "type": "bytes32"
        },
        {
          "indexed": false,
          "internalType": "bytes32",
          "name": "_s",
          "type": "bytes32"
        },
        {
          "indexed": false,
          "internalType": "uint256",
          "name": "_timestamp",
          "type": "uint256"
        }
      ],
      "name": "GotRedemptionSignature",
      "type": "event"
    },
    {
      "anonymous": false,
      "inputs": [
        {
          "indexed": false,
          "internalType": "address",
          "name": "_factorySelector",
          "type": "address"
        },
        {
          "indexed": false,
          "internalType": "address",
          "name": "_ethBackedFactory",
          "type": "address"
        },
        {
          "indexed": false,
          "internalType": "uint256",
          "name": "_timestamp",
          "type": "uint256"
        }
      ],
      "name": "KeepFactorySingleShotUpdateStarted",
      "type": "event"
    },
    {
      "anonymous": false,
      "inputs": [
        {
          "indexed": false,
          "internalType": "address",
          "name": "_factorySelector",
          "type": "address"
        },
        {
          "indexed": false,
          "internalType": "address",
          "name": "_ethBackedFactory",
          "type": "address"
        }
      ],
      "name": "KeepFactorySingleShotUpdated",
      "type": "event"
    },
    {
      "anonymous": false,
      "inputs": [
        {
          "indexed": true,
          "internalType": "address",
          "name": "_depositContractAddress",
          "type": "address"
        },
        {
          "indexed": false,
          "internalType": "uint256",
          "name": "_timestamp",
          "type": "uint256"
        }
      ],
      "name": "Liquidated",
      "type": "event"
    },
    {
      "anonymous": false,
      "inputs": [
        {
          "indexed": false,
          "internalType": "uint64[]",
          "name": "_lotSizes",
          "type": "uint64[]"
        },
        {
          "indexed": false,
          "internalType": "uint256",
          "name": "_timestamp",
          "type": "uint256"
        }
      ],
      "name": "LotSizesUpdateStarted",
      "type": "event"
    },
    {
      "anonymous": false,
      "inputs": [
        {
          "indexed": false,
          "internalType": "uint64[]",
          "name": "_lotSizes",
          "type": "uint64[]"
        }
      ],
      "name": "LotSizesUpdated",
      "type": "event"
    },
    {
      "anonymous": false,
      "inputs": [
        {
          "indexed": true,
          "internalType": "address",
          "name": "previousOwner",
          "type": "address"
        },
        {
          "indexed": true,
          "internalType": "address",
          "name": "newOwner",
          "type": "address"
        }
      ],
      "name": "OwnershipTransferred",
      "type": "event"
    },
    {
      "anonymous": false,
      "inputs": [
        {
          "indexed": true,
          "internalType": "address",
          "name": "_depositContractAddress",
          "type": "address"
        },
        {
          "indexed": true,
          "internalType": "bytes32",
          "name": "_txid",
          "type": "bytes32"
        },
        {
          "indexed": false,
          "internalType": "uint256",
          "name": "_timestamp",
          "type": "uint256"
        }
      ],
      "name": "Redeemed",
      "type": "event"
    },
    {
      "anonymous": false,
      "inputs": [
        {
          "indexed": true,
          "internalType": "address",
          "name": "_depositContractAddress",
          "type": "address"
        },
        {
          "indexed": true,
          "internalType": "address",
          "name": "_requester",
          "type": "address"
        },
        {
          "indexed": true,
          "internalType": "bytes32",
          "name": "_digest",
          "type": "bytes32"
        },
        {
          "indexed": false,
          "internalType": "uint256",
          "name": "_utxoValue",
          "type": "uint256"
        },
        {
          "indexed": false,
          "internalType": "bytes",
          "name": "_redeemerOutputScript",
          "type": "bytes"
        },
        {
          "indexed": false,
          "internalType": "uint256",
          "name": "_requestedFee",
          "type": "uint256"
        },
        {
          "indexed": false,
          "internalType": "bytes",
          "name": "_outpoint",
          "type": "bytes"
        }
      ],
      "name": "RedemptionRequested",
      "type": "event"
    },
    {
      "anonymous": false,
      "inputs": [
        {
          "indexed": true,
          "internalType": "address",
          "name": "_depositContractAddress",
          "type": "address"
        },
        {
          "indexed": false,
          "internalType": "bytes32",
          "name": "_signingGroupPubkeyX",
          "type": "bytes32"
        },
        {
          "indexed": false,
          "internalType": "bytes32",
          "name": "_signingGroupPubkeyY",
          "type": "bytes32"
        },
        {
          "indexed": false,
          "internalType": "uint256",
          "name": "_timestamp",
          "type": "uint256"
        }
      ],
      "name": "RegisteredPubkey",
      "type": "event"
    },
    {
      "anonymous": false,
      "inputs": [
        {
          "indexed": true,
          "internalType": "address",
          "name": "_depositContractAddress",
          "type": "address"
        },
        {
          "indexed": false,
          "internalType": "uint256",
          "name": "_timestamp",
          "type": "uint256"
        }
      ],
      "name": "SetupFailed",
      "type": "event"
    },
    {
      "anonymous": false,
      "inputs": [
        {
          "indexed": false,
          "internalType": "uint16",
          "name": "_signerFeeDivisor",
          "type": "uint16"
        },
        {
          "indexed": false,
          "internalType": "uint256",
          "name": "_timestamp",
          "type": "uint256"
        }
      ],
      "name": "SignerFeeDivisorUpdateStarted",
      "type": "event"
    },
    {
      "anonymous": false,
      "inputs": [
        {
          "indexed": false,
          "internalType": "uint16",
          "name": "_signerFeeDivisor",
          "type": "uint16"
        }
      ],
      "name": "SignerFeeDivisorUpdated",
      "type": "event"
    },
    {
      "anonymous": false,
      "inputs": [
        {
          "indexed": true,
          "internalType": "address",
          "name": "_depositContractAddress",
          "type": "address"
        },
        {
          "indexed": false,
          "internalType": "bool",
          "name": "_wasFraud",
          "type": "bool"
        },
        {
          "indexed": false,
          "internalType": "uint256",
          "name": "_timestamp",
          "type": "uint256"
        }
      ],
      "name": "StartedLiquidation",
      "type": "event"
    },
    {
      "constant": true,
      "inputs": [
        {
          "internalType": "address",
          "name": "_caller",
          "type": "address"
        }
      ],
      "name": "approvedToLog",
      "outputs": [
        {
          "internalType": "bool",
          "name": "",
          "type": "bool"
        }
      ],
      "payable": false,
      "stateMutability": "view",
      "type": "function"
    },
    {
      "constant": false,
      "inputs": [
        {
          "internalType": "uint16",
          "name": "_initialCollateralizedPercent",
          "type": "uint16"
        },
        {
          "internalType": "uint16",
          "name": "_undercollateralizedThresholdPercent",
          "type": "uint16"
        },
        {
          "internalType": "uint16",
          "name": "_severelyUndercollateralizedThresholdPercent",
          "type": "uint16"
        }
      ],
      "name": "beginCollateralizationThresholdsUpdate",
      "outputs": [],
      "payable": false,
      "stateMutability": "nonpayable",
      "type": "function"
    },
    {
      "constant": false,
      "inputs": [
        {
          "internalType": "contract IMedianizer",
          "name": "_ethBtcPriceFeed",
          "type": "address"
        }
      ],
      "name": "beginEthBtcPriceFeedAddition",
      "outputs": [],
      "payable": false,
      "stateMutability": "nonpayable",
      "type": "function"
    },
    {
      "constant": false,
      "inputs": [
        {
          "internalType": "address",
          "name": "_factorySelector",
          "type": "address"
        },
        {
          "internalType": "address",
          "name": "_ethBackedFactory",
          "type": "address"
        }
      ],
      "name": "beginKeepFactorySingleShotUpdate",
      "outputs": [],
      "payable": false,
      "stateMutability": "nonpayable",
      "type": "function"
    },
    {
      "constant": false,
      "inputs": [
        {
          "internalType": "uint64[]",
          "name": "_lotSizes",
          "type": "uint64[]"
        }
      ],
      "name": "beginLotSizesUpdate",
      "outputs": [],
      "payable": false,
      "stateMutability": "nonpayable",
      "type": "function"
    },
    {
      "constant": false,
      "inputs": [
        {
          "internalType": "uint16",
          "name": "_signerFeeDivisor",
          "type": "uint16"
        }
      ],
      "name": "beginSignerFeeDivisorUpdate",
      "outputs": [],
      "payable": false,
      "stateMutability": "nonpayable",
      "type": "function"
    },
    {
      "constant": false,
      "inputs": [],
      "name": "emergencyPauseNewDeposits",
      "outputs": [],
      "payable": false,
      "stateMutability": "nonpayable",
      "type": "function"
    },
    {
      "constant": true,
      "inputs": [],
      "name": "fetchRelayCurrentDifficulty",
      "outputs": [
        {
          "internalType": "uint256",
          "name": "",
          "type": "uint256"
        }
      ],
      "payable": false,
      "stateMutability": "view",
      "type": "function"
    },
    {
      "constant": true,
      "inputs": [],
      "name": "fetchRelayPreviousDifficulty",
      "outputs": [
        {
          "internalType": "uint256",
          "name": "",
          "type": "uint256"
        }
      ],
      "payable": false,
      "stateMutability": "view",
      "type": "function"
    },
    {
      "constant": false,
      "inputs": [],
      "name": "finalizeCollateralizationThresholdsUpdate",
      "outputs": [],
      "payable": false,
      "stateMutability": "nonpayable",
      "type": "function"
    },
    {
      "constant": false,
      "inputs": [],
      "name": "finalizeEthBtcPriceFeedAddition",
      "outputs": [],
      "payable": false,
      "stateMutability": "nonpayable",
      "type": "function"
    },
    {
      "constant": false,
      "inputs": [],
      "name": "finalizeKeepFactorySingleShotUpdate",
      "outputs": [],
      "payable": false,
      "stateMutability": "nonpayable",
      "type": "function"
    },
    {
      "constant": false,
      "inputs": [],
      "name": "finalizeLotSizesUpdate",
      "outputs": [],
      "payable": false,
      "stateMutability": "nonpayable",
      "type": "function"
    },
    {
      "constant": false,
      "inputs": [],
      "name": "finalizeSignerFeeDivisorUpdate",
      "outputs": [],
      "payable": false,
      "stateMutability": "nonpayable",
      "type": "function"
    },
    {
      "constant": true,
      "inputs": [],
      "name": "getAllowNewDeposits",
      "outputs": [
        {
          "internalType": "bool",
          "name": "",
          "type": "bool"
        }
      ],
      "payable": false,
      "stateMutability": "view",
      "type": "function"
    },
    {
      "constant": true,
      "inputs": [],
      "name": "getAllowedLotSizes",
      "outputs": [
        {
          "internalType": "uint64[]",
          "name": "",
          "type": "uint64[]"
        }
      ],
      "payable": false,
      "stateMutability": "view",
      "type": "function"
    },
    {
      "constant": true,
      "inputs": [],
      "name": "getGovernanceTimeDelay",
      "outputs": [
        {
          "internalType": "uint256",
          "name": "",
          "type": "uint256"
        }
      ],
      "payable": false,
      "stateMutability": "pure",
      "type": "function"
    },
    {
      "constant": true,
      "inputs": [],
      "name": "getInitialCollateralizedPercent",
      "outputs": [
        {
          "internalType": "uint16",
          "name": "",
          "type": "uint16"
        }
      ],
      "payable": false,
      "stateMutability": "view",
      "type": "function"
    },
    {
      "constant": true,
      "inputs": [],
      "name": "getMaxLotSize",
      "outputs": [
        {
          "internalType": "uint256",
          "name": "",
          "type": "uint256"
        }
      ],
      "payable": false,
      "stateMutability": "view",
      "type": "function"
    },
    {
      "constant": true,
      "inputs": [],
      "name": "getNewDepositFeeEstimate",
      "outputs": [
        {
          "internalType": "uint256",
          "name": "",
          "type": "uint256"
        }
      ],
      "payable": false,
      "stateMutability": "view",
      "type": "function"
    },
    {
      "constant": true,
      "inputs": [],
      "name": "getPriceFeedGovernanceTimeDelay",
      "outputs": [
        {
          "internalType": "uint256",
          "name": "",
          "type": "uint256"
        }
      ],
      "payable": false,
      "stateMutability": "view",
      "type": "function"
    },
    {
      "constant": true,
      "inputs": [],
      "name": "getRemainingCollateralizationThresholdsUpdateTime",
      "outputs": [
        {
          "internalType": "uint256",
          "name": "",
          "type": "uint256"
        }
      ],
      "payable": false,
      "stateMutability": "view",
      "type": "function"
    },
    {
      "constant": true,
      "inputs": [],
      "name": "getRemainingEthBtcPriceFeedAdditionTime",
      "outputs": [
        {
          "internalType": "uint256",
          "name": "",
          "type": "uint256"
        }
      ],
      "payable": false,
      "stateMutability": "view",
      "type": "function"
    },
    {
      "constant": true,
      "inputs": [],
      "name": "getRemainingKeepFactorySingleShotUpdateTime",
      "outputs": [
        {
          "internalType": "uint256",
          "name": "",
          "type": "uint256"
        }
      ],
      "payable": false,
      "stateMutability": "view",
      "type": "function"
    },
    {
      "constant": true,
      "inputs": [],
      "name": "getRemainingLotSizesUpdateTime",
      "outputs": [
        {
          "internalType": "uint256",
          "name": "",
          "type": "uint256"
        }
      ],
      "payable": false,
      "stateMutability": "view",
      "type": "function"
    },
    {
      "constant": true,
      "inputs": [],
      "name": "getRemainingPauseTerm",
      "outputs": [
        {
          "internalType": "uint256",
          "name": "",
          "type": "uint256"
        }
      ],
      "payable": false,
      "stateMutability": "view",
      "type": "function"
    },
    {
      "constant": true,
      "inputs": [],
      "name": "getRemainingSignerFeeDivisorUpdateTime",
      "outputs": [
        {
          "internalType": "uint256",
          "name": "",
          "type": "uint256"
        }
      ],
      "payable": false,
      "stateMutability": "view",
      "type": "function"
    },
    {
      "constant": true,
      "inputs": [],
      "name": "getSeverelyUndercollateralizedThresholdPercent",
      "outputs": [
        {
          "internalType": "uint16",
          "name": "",
          "type": "uint16"
        }
      ],
      "payable": false,
      "stateMutability": "view",
      "type": "function"
    },
    {
      "constant": true,
      "inputs": [],
      "name": "getSignerFeeDivisor",
      "outputs": [
        {
          "internalType": "uint16",
          "name": "",
          "type": "uint16"
        }
      ],
      "payable": false,
      "stateMutability": "view",
      "type": "function"
    },
    {
      "constant": true,
      "inputs": [],
      "name": "getUndercollateralizedThresholdPercent",
      "outputs": [
        {
          "internalType": "uint16",
          "name": "",
          "type": "uint16"
        }
      ],
      "payable": false,
      "stateMutability": "view",
      "type": "function"
    },
    {
      "constant": false,
      "inputs": [
        {
          "internalType": "contract IBondedECDSAKeepFactory",
          "name": "_defaultKeepFactory",
          "type": "address"
        },
        {
          "internalType": "contract DepositFactory",
          "name": "_depositFactory",
          "type": "address"
        },
        {
          "internalType": "address payable",
          "name": "_masterDepositAddress",
          "type": "address"
        },
        {
          "internalType": "contract TBTCToken",
          "name": "_tbtcToken",
          "type": "address"
        },
        {
          "internalType": "contract TBTCDepositToken",
          "name": "_tbtcDepositToken",
          "type": "address"
        },
        {
          "internalType": "contract FeeRebateToken",
          "name": "_feeRebateToken",
          "type": "address"
        },
        {
          "internalType": "contract VendingMachine",
          "name": "_vendingMachine",
          "type": "address"
        },
        {
          "internalType": "uint16",
          "name": "_keepThreshold",
          "type": "uint16"
        },
        {
          "internalType": "uint16",
          "name": "_keepSize",
          "type": "uint16"
        }
      ],
      "name": "initialize",
      "outputs": [],
      "payable": false,
      "stateMutability": "nonpayable",
      "type": "function"
    },
    {
      "constant": true,
      "inputs": [
        {
          "internalType": "uint64",
          "name": "_lotSizeSatoshis",
          "type": "uint64"
        }
      ],
      "name": "isAllowedLotSize",
      "outputs": [
        {
          "internalType": "bool",
          "name": "",
          "type": "bool"
        }
      ],
      "payable": false,
      "stateMutability": "view",
      "type": "function"
    },
    {
      "constant": true,
      "inputs": [],
      "name": "isOwner",
      "outputs": [
        {
          "internalType": "bool",
          "name": "",
          "type": "bool"
        }
      ],
      "payable": false,
      "stateMutability": "view",
      "type": "function"
    },
    {
      "constant": false,
      "inputs": [],
      "name": "logCourtesyCalled",
      "outputs": [],
      "payable": false,
      "stateMutability": "nonpayable",
      "type": "function"
    },
    {
      "constant": false,
      "inputs": [
        {
          "internalType": "address",
          "name": "_keepAddress",
          "type": "address"
        }
      ],
      "name": "logCreated",
      "outputs": [],
      "payable": false,
      "stateMutability": "nonpayable",
      "type": "function"
    },
    {
      "constant": false,
      "inputs": [],
      "name": "logExitedCourtesyCall",
      "outputs": [],
      "payable": false,
      "stateMutability": "nonpayable",
      "type": "function"
    },
    {
      "constant": false,
      "inputs": [],
      "name": "logFraudDuringSetup",
      "outputs": [],
      "payable": false,
      "stateMutability": "nonpayable",
      "type": "function"
    },
    {
      "constant": false,
      "inputs": [
        {
          "internalType": "bytes32",
          "name": "_txid",
          "type": "bytes32"
        }
      ],
      "name": "logFunded",
      "outputs": [],
      "payable": false,
      "stateMutability": "nonpayable",
      "type": "function"
    },
    {
      "constant": false,
      "inputs": [
        {
          "internalType": "bytes",
          "name": "_abortOutputScript",
          "type": "bytes"
        }
      ],
      "name": "logFunderRequestedAbort",
      "outputs": [],
      "payable": false,
      "stateMutability": "nonpayable",
      "type": "function"
    },
    {
      "constant": false,
      "inputs": [
        {
          "internalType": "bytes32",
          "name": "_digest",
          "type": "bytes32"
        },
        {
          "internalType": "bytes32",
          "name": "_r",
          "type": "bytes32"
        },
        {
          "internalType": "bytes32",
          "name": "_s",
          "type": "bytes32"
        }
      ],
      "name": "logGotRedemptionSignature",
      "outputs": [],
      "payable": false,
      "stateMutability": "nonpayable",
      "type": "function"
    },
    {
      "constant": false,
      "inputs": [],
      "name": "logLiquidated",
      "outputs": [],
      "payable": false,
      "stateMutability": "nonpayable",
      "type": "function"
    },
    {
      "constant": false,
      "inputs": [
        {
          "internalType": "bytes32",
          "name": "_txid",
          "type": "bytes32"
        }
      ],
      "name": "logRedeemed",
      "outputs": [],
      "payable": false,
      "stateMutability": "nonpayable",
      "type": "function"
    },
    {
      "constant": false,
      "inputs": [
        {
          "internalType": "address",
          "name": "_requester",
          "type": "address"
        },
        {
          "internalType": "bytes32",
          "name": "_digest",
          "type": "bytes32"
        },
        {
          "internalType": "uint256",
          "name": "_utxoValue",
          "type": "uint256"
        },
        {
          "internalType": "bytes",
          "name": "_redeemerOutputScript",
          "type": "bytes"
        },
        {
          "internalType": "uint256",
          "name": "_requestedFee",
          "type": "uint256"
        },
        {
          "internalType": "bytes",
          "name": "_outpoint",
          "type": "bytes"
        }
      ],
      "name": "logRedemptionRequested",
      "outputs": [],
      "payable": false,
      "stateMutability": "nonpayable",
      "type": "function"
    },
    {
      "constant": false,
      "inputs": [
        {
          "internalType": "bytes32",
          "name": "_signingGroupPubkeyX",
          "type": "bytes32"
        },
        {
          "internalType": "bytes32",
          "name": "_signingGroupPubkeyY",
          "type": "bytes32"
        }
      ],
      "name": "logRegisteredPubkey",
      "outputs": [],
      "payable": false,
      "stateMutability": "nonpayable",
      "type": "function"
    },
    {
      "constant": false,
      "inputs": [],
      "name": "logSetupFailed",
      "outputs": [],
      "payable": false,
      "stateMutability": "nonpayable",
      "type": "function"
    },
    {
      "constant": false,
      "inputs": [
        {
          "internalType": "bool",
          "name": "_wasFraud",
          "type": "bool"
        }
      ],
      "name": "logStartedLiquidation",
      "outputs": [],
      "payable": false,
      "stateMutability": "nonpayable",
      "type": "function"
    },
    {
      "constant": true,
      "inputs": [],
      "name": "owner",
      "outputs": [
        {
          "internalType": "address",
          "name": "",
          "type": "address"
        }
      ],
      "payable": false,
      "stateMutability": "view",
      "type": "function"
    },
    {
      "constant": true,
      "inputs": [],
      "name": "priceFeed",
      "outputs": [
        {
          "internalType": "contract ISatWeiPriceFeed",
          "name": "",
          "type": "address"
        }
      ],
      "payable": false,
      "stateMutability": "view",
      "type": "function"
    },
    {
      "constant": true,
      "inputs": [],
      "name": "relay",
      "outputs": [
        {
          "internalType": "contract IRelay",
          "name": "",
          "type": "address"
        }
      ],
      "payable": false,
      "stateMutability": "view",
      "type": "function"
    },
    {
      "constant": false,
      "inputs": [],
      "name": "renounceOwnership",
      "outputs": [],
      "payable": false,
      "stateMutability": "nonpayable",
      "type": "function"
    },
    {
      "constant": false,
      "inputs": [],
      "name": "resumeNewDeposits",
      "outputs": [],
      "payable": false,
      "stateMutability": "nonpayable",
      "type": "function"
    },
    {
      "constant": false,
      "inputs": [
        {
          "internalType": "address",
          "name": "newOwner",
          "type": "address"
        }
      ],
      "name": "transferOwnership",
      "outputs": [],
      "payable": false,
      "stateMutability": "nonpayable",
      "type": "function"
    },
    {
      "constant": false,
      "inputs": [
        {
          "internalType": "uint256",
          "name": "_oraclePrice",
          "type": "uint256"
        }
      ],
      "name": "setOraclePrice",
      "outputs": [],
      "payable": false,
      "stateMutability": "nonpayable",
      "type": "function"
    },
    {
      "constant": true,
      "inputs": [],
      "name": "fetchBitcoinPrice",
      "outputs": [
        {
          "internalType": "uint256",
          "name": "",
          "type": "uint256"
        }
      ],
      "payable": false,
      "stateMutability": "view",
      "type": "function"
    },
    {
      "constant": false,
      "inputs": [
        {
          "internalType": "address",
          "name": "_keepAddress",
          "type": "address"
        }
      ],
      "name": "setKeepAddress",
      "outputs": [],
      "payable": false,
      "stateMutability": "nonpayable",
      "type": "function"
    },
    {
      "constant": false,
      "inputs": [
        {
          "internalType": "uint256",
          "name": "",
          "type": "uint256"
        },
        {
          "internalType": "uint256",
          "name": "",
          "type": "uint256"
        },
        {
          "internalType": "uint256",
          "name": "",
          "type": "uint256"
        },
        {
          "internalType": "uint256",
          "name": "",
          "type": "uint256"
        }
      ],
      "name": "requestNewKeep",
      "outputs": [
        {
          "internalType": "address",
          "name": "_keepAddress",
          "type": "address"
        }
      ],
      "payable": true,
      "stateMutability": "payable",
      "type": "function"
    }
  ],
  "bytecode": "0x6000600255600b805462ffffff19166207d0001764ffff000000191663960000001761ffff60281b1916657d00000000001761ffff60381b1916676e00000000000000179055610140604052620186a06080908152620f424060a0526298968060c0526301312d0060e0526302faf080610100526305f5e100610120526200008c90600c9060066200016a565b506276a700601555601880546001600160a01b031916600717905564e8d4a51000601955348015620000bd57600080fd5b5060405162003bdc38038062003bdc83398181016040526040811015620000e357600080fd5b508051602090910151600080546001600160a01b0319163317808255604051849284926001600160a01b0316917f8be0079c531659141344cd1fd0a4f28419497f9722a3daafe3b4186f6b6457e0908290a3600480546001600160a01b039384166001600160a01b0319918216179091556005805492909316911617905550620002509050565b82805482825590600052602060002090600301600490048101928215620002145791602002820160005b83821115620001dd57835183826101000a8154816001600160401b03021916908363ffffffff160217905550926020019260080160208160070104928301926001030262000194565b8015620002125782816101000a8154906001600160401b030219169055600801602081600701049283019260010302620001dd565b505b506200022292915062000226565b5090565b6200024d91905b80821115620002225780546001600160401b03191681556001016200022d565b90565b61397c80620002606000396000f3fe60806040526004361061036b5760003560e01c806380f04b8c116101c6578063c074d550116100f7578063dde3fdd211610095578063e9cfd4a31161006f578063e9cfd4a314610c93578063f2e7234714610ca8578063f2fde38b14610cbd578063f760621e14610cf05761036b565b8063dde3fdd214610c29578063de1e57d014610c69578063e2c50ad814610c7e5761036b565b8063cb277dfe116100d1578063cb277dfe14610b13578063cd3a949014610b4e578063ce2c07ce14610b63578063dab70cb114610c145761036b565b8063c074d55014610abf578063c65cd86d14610ad4578063c8fba24314610afe5761036b565b8063a2cd75da11610164578063adc3ef701161013e578063adc3ef7014610a6b578063ae7f4a5f14610a80578063b59589d114610a95578063b792a38e14610aaa5761036b565b8063a2cd75da14610a2c578063a6c1691c14610a41578063a831c81614610a565761036b565b80638f32d59b116101a05780638f32d59b1461099c578063987ecea7146109b15780639ffb3862146109c6578063a28b79f1146109f95761036b565b806380f04b8c14610942578063869f9469146109575780638da5cb5b146109875761036b565b80632b155e37116102a057806360e98d591161023e578063715018a611610218578063715018a6146108d9578063741bef1a146108ee5780637c33fc05146109035780637ed451a4146109185761036b565b806360e98d591461086e5780636e1ba2831461089a5780636f4fef62146108c45761036b565b80633ee850bc1161027a5780633ee850bc146107cb578063402b783d146107e057806349b64730146107f557806354ff529e146108235761036b565b80632b155e371461070f5780632d00f1ee1461078a5780633aac34671461079f5761036b565b806318e647dd1161030d57806321b229dd116102e757806321b229dd1461069d57806322a147e6146106b257806322e5724c146106c7578063282bfd38146106dc5761036b565b806318e647dd146104b7578063191d2032146106115780631c52d90c146106265761036b565b8063086c9edd11610349578063086c9edd146103ff5780630af488f9146104645780630ce0e700146104795780630d7eb1c41461048e5761036b565b8063013b0f3014610370578063022d44b71461039757806307a3d659146103cc575b600080fd5b34801561037c57600080fd5b50610385610d26565b60408051918252519081900360200190f35b3480156103a357600080fd5b506103ca600480360360208110156103ba57600080fd5b50356001600160a01b0316610dc0565b005b3480156103d857600080fd5b506103ca600480360360208110156103ef57600080fd5b50356001600160a01b0316610de2565b34801561040b57600080fd5b50610414610f49565b60408051602080825283518183015283519192839290830191858101910280838360005b83811015610450578181015183820152602001610438565b505050509050019250505060405180910390f35b34801561047057600080fd5b50610385610fd3565b34801561048557600080fd5b506103ca610fe3565b34801561049a57600080fd5b506104a3611132565b604080519115158252519081900360200190f35b3480156104c357600080fd5b506103ca600480360360c08110156104da57600080fd5b6001600160a01b038235169160208101359160408201359190810190608081016060820135600160201b81111561051057600080fd5b82018360208201111561052257600080fd5b803590602001918460018302840111600160201b8311171561054357600080fd5b91908080601f01602080910402602001604051908101604052809392919081815260200183838082843760009201919091525092958435959094909350604081019250602001359050600160201b81111561059d57600080fd5b8201836020820111156105af57600080fd5b803590602001918460018302840111600160201b831117156105d057600080fd5b91908080601f01602080910402602001604051908101604052809392919081815260200183838082843760009201919091525092955061113b945050505050565b34801561061d57600080fd5b506103856112ac565b34801561063257600080fd5b506103ca600480360361012081101561064a57600080fd5b506001600160a01b038135811691602081013582169160408201358116916060810135821691608082013581169160a081013582169160c0820135169061ffff60e08201358116916101000135166112bd565b3480156106a957600080fd5b50610385611494565b3480156106be57600080fd5b506103ca611523565b3480156106d357600080fd5b506103ca61159f565b3480156106e857600080fd5b506103ca600480360360208110156106ff57600080fd5b50356001600160a01b031661161b565b34801561071b57600080fd5b506103ca6004803603602081101561073257600080fd5b810190602081018135600160201b81111561074c57600080fd5b82018360208201111561075e57600080fd5b803590602001918460208302840111600160201b8311171561077f57600080fd5b5090925090506116a2565b34801561079657600080fd5b506103856118c1565b3480156107ab57600080fd5b506103ca600480360360208110156107c257600080fd5b503515156119b8565b3480156107d757600080fd5b50610385611a3a565b3480156107ec57600080fd5b50610385611a4b565b34801561080157600080fd5b506103ca6004803603602081101561081857600080fd5b503561ffff16611ac1565b6108526004803603608081101561083957600080fd5b5080359060208101359060408101359060600135611be7565b604080516001600160a01b039092168252519081900360200190f35b34801561087a57600080fd5b50610883611bfb565b6040805161ffff9092168252519081900360200190f35b3480156108a657600080fd5b506103ca600480360360208110156108bd57600080fd5b5035611c0a565b3480156108d057600080fd5b50610883611c88565b3480156108e557600080fd5b506103ca611c99565b3480156108fa57600080fd5b50610852611d2a565b34801561090f57600080fd5b506103ca611d39565b34801561092457600080fd5b506103ca6004803603602081101561093b57600080fd5b5035611e7f565b34801561094e57600080fd5b506103ca611efd565b34801561096357600080fd5b506103ca6004803603604081101561097a57600080fd5b508035906020013561200e565b34801561099357600080fd5b50610852612098565b3480156109a857600080fd5b506104a36120a7565b3480156109bd57600080fd5b506108836120b8565b3480156109d257600080fd5b506104a3600480360360208110156109e957600080fd5b50356001600160a01b03166120c9565b348015610a0557600080fd5b506104a360048036036020811015610a1c57600080fd5b50356001600160401b031661214e565b348015610a3857600080fd5b506108836121bb565b348015610a4d57600080fd5b506103856121ce565b348015610a6257600080fd5b506103ca6121d4565b348015610a7757600080fd5b506103ca612250565b348015610a8c57600080fd5b506103856123fa565b348015610aa157600080fd5b50610852612400565b348015610ab657600080fd5b5061038561240f565b348015610acb57600080fd5b50610385612420565b348015610ae057600080fd5b506103ca60048036036020811015610af757600080fd5b5035612431565b348015610b0a57600080fd5b506103ca612436565b348015610b1f57600080fd5b506103ca60048036036040811015610b3657600080fd5b506001600160a01b03813581169160200135166124b2565b348015610b5a57600080fd5b506103ca612664565b348015610b6f57600080fd5b506103ca60048036036020811015610b8657600080fd5b810190602081018135600160201b811115610ba057600080fd5b820183602082011115610bb257600080fd5b803590602001918460018302840111600160201b83111715610bd357600080fd5b91908080601f016020809104026020016040519081016040528093929190818152602001838380828437600092019190915250929550612820945050505050565b348015610c2057600080fd5b50610385612900565b348015610c3557600080fd5b506103ca60048036036060811015610c4c57600080fd5b5061ffff8135811691602081013582169160409091013516612945565b348015610c7557600080fd5b506103ca612b32565b348015610c8a57600080fd5b506103ca612cdd565b348015610c9f57600080fd5b506103ca612d59565b348015610cb457600080fd5b50610385612ef4565b348015610cc957600080fd5b506103ca60048036036020811015610ce057600080fd5b50356001600160a01b0316612efb565b348015610cfc57600080fd5b506103ca60048036036060811015610d1357600080fd5b5080359060208101359060400135612f4e565b600b5460009060ff1615610d6b5760405162461bcd60e51b81526004018080602001828103825260228152602001806138636022913960400191505060405180910390fd5b620d2f00610d8460035442612fda90919063ffffffff16565b1015610db757610db2610da260035442612fda90919063ffffffff16565b620d2f009063ffffffff612fda16565b610dba565b60005b90505b90565b601880546001600160a01b0319166001600160a01b0392909216919091179055565b610dea6120a7565b610e29576040805162461bcd60e51b81526020600482018190526024820152600080516020613795833981519152604482015290519081900360640190fd5b6000816001600160a01b03166359e02dd76040518163ffffffff1660e01b8152600401604080518083038186803b158015610e6357600080fd5b505afa158015610e77573d6000803e3d6000fd5b505050506040513d6040811015610e8d57600080fd5b5060200151905080610ee6576040805162461bcd60e51b815260206004820152601860248201527f43616e6e6f742061646420696e61637469766520666565640000000000000000604482015290519081900360640190fd5b601780546001600160a01b0319166001600160a01b03841690811790915542601681905560408051928352602083019190915280517f5a3d3d9197f5c60c16de28887dccf83284a4fd034b930272637c83307b4fffe79281900390910190a15050565b6060600c805480602002602001604051908101604052809291908181526020018280548015610fc957602002820191906000526020600020906000905b82829054906101000a90046001600160401b03166001600160401b031681526020019060080190602082600701049283019260010382029150808411610f865790505b5050505050905090565b6000610dba60165460155461303c565b610feb6120a7565b61102a576040805162461bcd60e51b81526020600482018190526024820152600080516020613795833981519152604482015290519081900360640190fd5b600d546202a3006000821161107d576040805162461bcd60e51b815260206004820152601460248201527310da185b99d9481b9bdd081a5b9a5d1a585d195960621b604482015290519081900360640190fd5b8061108e428463ffffffff612fda16565b10156110cf576040805162461bcd60e51b81526020600482018190526024820152600080516020613775833981519152604482015290519081900360640190fd5b601154600b805462ffff00191661010061ffff90931692830217905560408051918252517f236dec26d53c6a51390e98ed703106e132fd062b0e38b8a9cf8b4d13f47952c8916020908290030190a150506011805461ffff191690556000600d55565b600b5460ff1690565b611144336120c9565b61117f5760405162461bcd60e51b81526004018080602001828103825260248152602001806136696024913960400191505060405180910390fd5b84866001600160a01b0316336001600160a01b03167f7959c380174061a21a3ba80243a032ba9cd10dc8bd1736d7e835c94e97a35a9887878787604051808581526020018060200184815260200180602001838103835286818151815260200191508051906020019080838360005b838110156112065781810151838201526020016111ee565b50505050905090810190601f1680156112335780820380516001836020036101000a031916815260200191505b50838103825284518152845160209182019186019080838360005b8381101561126657818101518382015260200161124e565b50505050905090810190601f1680156112935780820380516001836020036101000a031916815260200191505b50965050505050505060405180910390a4505050505050565b6000610dba6010546202a30061303c565b6112c56120a7565b611304576040805162461bcd60e51b81526020600482018190526024820152600080516020613795833981519152604482015290519081900360640190fd5b6002541561134f576040805162461bcd60e51b8152602060048201526013602482015272185b1c9958591e481a5b9a5d1a585b1a5e9959606a1b604482015290519081900360640190fd5b61136060068a63ffffffff6130c616565b60408051630d4815e560e21b81526001600160a01b0388811660048301528781166024830152868116604483015291519185169163352057949160648082019260009290919082900301818387803b1580156113bb57600080fd5b505af11580156113cf573d6000803e3d6000fd5b5050604080516324a7249560e11b81526001600160a01b038b811660048301523060248301528a811660448301528981166064830152888116608483015287811660a483015261ffff80881660c4840152861660e48301529151918c16935063494e492a92506101048082019260009290919082900301818387803b15801561145757600080fd5b505af115801561146b573d6000803e3d6000fd5b505050506114788561314f565b5050426002555050600b805460ff191660011790555050505050565b600080805b600c5481101561151d5781600c82815481106114b157fe5b6000918252602090912060048204015460039091166008026101000a90046001600160401b0316111561151557600c81815481106114eb57fe5b6000918252602090912060048204015460039091166008026101000a90046001600160401b031691505b600101611499565b50905090565b61152c336120c9565b6115675760405162461bcd60e51b81526004018080602001828103825260248152602001806136696024913960400191505060405180910390fd5b60408051428152905133917f6e7b45210b79c12cd1332babd8d86c0bbb9ca898a89ce0404f17064dbfba18c0919081900360200190a2565b6115a8336120c9565b6115e35760405162461bcd60e51b81526004018080602001828103825260248152602001806136696024913960400191505060405180910390fd5b60408051428152905133917f07f0eaafadb9abb1d28da85d4b4c74f1939fd61b535c7f5ab501f618f07e76ee919081900360200190a2565b611624336120c9565b61165f5760405162461bcd60e51b81526004018080602001828103825260248152602001806136696024913960400191505060405180910390fd5b6040805142815290516001600160a01b0383169133917f822b3073be62c5c7f143c2dcd71ee266434ee935d90a1eec3be34710ac8ec1a29181900360200190a350565b6116aa6120a7565b6116e9576040805162461bcd60e51b81526020600482018190526024820152600080516020613795833981519152604482015290519081900360640190fd5b6000805b828110156118035783838281811061170157fe5b905060200201356001600160401b03166001600160401b03166305f5e100141561172e57600191506117fb565b61c35084848381811061173d57fe5b905060200201356001600160401b03166001600160401b031610156117935760405162461bcd60e51b815260040180806020018281038252602e8152602001806136d7602e913960400191505060405180910390fd5b6402540be4008484838181106117a557fe5b905060200201356001600160401b03166001600160401b031611156117fb5760405162461bcd60e51b815260040180806020018281038252602e815260200180613835602e913960400191505060405180910390fd5b6001016116ed565b50806118405760405162461bcd60e51b81526004018080602001828103825260288152602001806137b56028913960400191505060405180910390fd5b7fffb1e2bce3c7a63d0cac5492540bd370e1156621adde36cd481262c2846a2b7b83834260405180806020018381526020018281038252858582818152602001925060200280828437600083820152604051601f909101601f1916909201829003965090945050505050a16118b760128484613413565b505042600e555050565b600080600673__KeepFactorySelection__________________63d83d44b090916040518263ffffffff1660e01b81526004018082815260200191505060206040518083038186803b15801561191657600080fd5b505af415801561192a573d6000803e3d6000fd5b505050506040513d602081101561194057600080fd5b50516040805163bc2c289f60e01b815290519192506001600160a01b0383169163bc2c289f91600480820192602092909190829003018186803b15801561198657600080fd5b505afa15801561199a573d6000803e3d6000fd5b505050506040513d60208110156119b057600080fd5b505191505090565b6119c1336120c9565b6119fc5760405162461bcd60e51b81526004018080602001828103825260248152602001806136696024913960400191505060405180910390fd5b604080518215158152426020820152815133927fbef11c059eefba82a15aea8a3a89c86fd08d7711c88fa7daea2632a55488510c928290030190a250565b6000610dba600e546202a30061303c565b60055460408051630ae5ef8960e21b815290516000926001600160a01b031691632b97be24916004808301926020929190829003018186803b158015611a9057600080fd5b505afa158015611aa4573d6000803e3d6000fd5b505050506040513d6020811015611aba57600080fd5b5051905090565b611ac96120a7565b611b08576040805162461bcd60e51b81526020600482018190526024820152600080516020613795833981519152604482015290519081900360640190fd5b60098161ffff1611611b4b5760405162461bcd60e51b815260040180806020018281038252604a81526020018061368d604a913960600191505060405180910390fd5b6113888161ffff1610611b8f5760405162461bcd60e51b815260040180806020018281038252604b8152602001806138b1604b913960600191505060405180910390fd5b6011805461ffff191661ffff831690811790915542600d81905560408051928352602083019190915280517f38cb7049f0daf658ca989e9ef6b850ef11e3740ff07a0c16706042c39adf48fc9281900390910190a150565b6018546001600160a01b0316949350505050565b600b54610100900461ffff1690565b611c13336120c9565b611c4e5760405162461bcd60e51b81526004018080602001828103825260248152602001806136696024913960400191505060405180910390fd5b604080514281529051829133917f44b7f176bcc739b54bd0800fe491cbdea19df7d4d6b19c281462e6b4fc5043449181900360200190a350565b600b54600160381b900461ffff1690565b611ca16120a7565b611ce0576040805162461bcd60e51b81526020600482018190526024820152600080516020613795833981519152604482015290519081900360640190fd5b600080546040516001600160a01b03909116907f8be0079c531659141344cd1fd0a4f28419497f9722a3daafe3b4186f6b6457e0908390a3600080546001600160a01b0319169055565b6004546001600160a01b031681565b600b5460ff1615611d7b5760405162461bcd60e51b81526004018080602001828103825260228152602001806138636022913960400191505060405180910390fd5b600354611dcf576040805162461bcd60e51b815260206004820152601b60248201527f4465706f73697420686173206e6f74206265656e207061757365640000000000604482015290519081900360640190fd5b620d2f00611de860035442612fda90919063ffffffff16565b1015611e3b576040805162461bcd60e51b815260206004820152601960248201527f4465706f7369747320617265207374696c6c2070617573656400000000000000604482015290519081900360640190fd5b600b805460ff1916600190811790915560408051918252517f3a854be74be62dd3ba5f0fdb7aa5b535683f999e90cda09ba75a2d99b27225239181900360200190a1565b611e88336120c9565b611ec35760405162461bcd60e51b81526004018080602001828103825260248152602001806136696024913960400191505060405180910390fd5b604080514281529051829133917fe34c70bd3e03956978a5c76d2ea5f3a60819171afea6dee4fc12b2e45f72d43d9181900360200190a350565b611f056120a7565b611f44576040805162461bcd60e51b81526020600482018190526024820152600080516020613795833981519152604482015290519081900360640190fd5b60035415611f835760405162461bcd60e51b81526004018080602001828103825260318152602001806135966031913960400191505060405180910390fd5b600254420362ed4e008110611fc95760405162461bcd60e51b815260040180806020018281038252604e8152602001806135c7604e913960600191505060405180910390fd5b42600355600b805460ff19169055604080516000815290517f3a854be74be62dd3ba5f0fdb7aa5b535683f999e90cda09ba75a2d99b27225239181900360200190a150565b612017336120c9565b6120525760405162461bcd60e51b81526004018080602001828103825260248152602001806136696024913960400191505060405180910390fd5b60408051838152602081018390524281830152905133917f8ee737ab16909c4e9d1b750814a4393c9f84ab5d3a29c08c313b783fc846ae33919081900360600190a25050565b6000546001600160a01b031690565b6000546001600160a01b0316331490565b600b546301000000900461ffff1690565b60015460408051634f558e7960e01b81526001600160a01b03848116600483015291516000939290921691634f558e7991602480820192602092909190829003018186803b15801561211a57600080fd5b505afa15801561212e573d6000803e3d6000fd5b505050506040513d602081101561214457600080fd5b505190505b919050565b6000805b600c548110156121b257826001600160401b0316600c828154811061217357fe5b6000918252602090912060048204015460039091166008026101000a90046001600160401b031614156121aa576001915050612149565b600101612152565b50600092915050565b600b5465010000000000900461ffff1690565b60195490565b6121dd336120c9565b6122185760405162461bcd60e51b81526004018080602001828103825260248152602001806136696024913960400191505060405180910390fd5b60408051428152905133917f8fd2cfb62a35fccc1ecef829f83a6c2f840b73dad49d3eaaa402909752086d4b919081900360200190a2565b6122586120a7565b612297576040805162461bcd60e51b81526020600482018190526024820152600080516020613795833981519152604482015290519081900360640190fd5b601654601554600082116122e9576040805162461bcd60e51b815260206004820152601460248201527310da185b99d9481b9bdd081a5b9a5d1a585d195960621b604482015290519081900360640190fd5b806122fa428463ffffffff612fda16565b101561233b576040805162461bcd60e51b81526020600482018190526024820152600080516020613775833981519152604482015290519081900360640190fd5b601780546001600160a01b0319811690915560006016819055600480546040805163d14dd41360e01b81526001600160a01b03958616938101849052905192949091169263d14dd4139260248084019382900301818387803b1580156123a057600080fd5b505af11580156123b4573d6000803e3d6000fd5b5050604080516001600160a01b038516815290517f5e4bd1f6e413d39e172d96a88ee6b1b2ba9e1a6207e2ca34fa8c3ccd152ff21a9350908190036020019150a1505050565b60155490565b6005546001600160a01b031681565b6000610dba600d546202a30061303c565b6000610dba600f546202a30061303c565b601955565b61243f336120c9565b61247a5760405162461bcd60e51b81526004018080602001828103825260248152602001806136696024913960400191505060405180910390fd5b60408051428152905133917fa5ee7a2b0254fce91deed604506790ed7fa072d0b14cba4859c3bc8955b9caac919081900360200190a2565b6124ba6120a7565b6124f9576040805162461bcd60e51b81526020600482018190526024820152600080516020613795833981519152604482015290519081900360640190fd5b60105415158061251257506014546001600160a01b0316155b61254d5760405162461bcd60e51b815260040180806020018281038252602a81526020018061374b602a913960400191505060405180910390fd5b6001600160a01b0382166125925760405162461bcd60e51b815260040180806020018281038252602a81526020018061380b602a913960400191505060405180910390fd5b6001600160a01b0381166125d75760405162461bcd60e51b815260040180806020018281038252602c815260200180613885602c913960400191505060405180910390fd5b601380546601000000000000600160d01b031916600160301b6001600160a01b0385811691820292909217909255601480546001600160a01b031916918416918217905542601081905560408051938452602084019290925282820152517fdc461af7d95f963ea23749952c5e95648f5f7c79116442e5a1a7010259e88548916060908290030190a15050565b61266c6120a7565b6126ab576040805162461bcd60e51b81526020600482018190526024820152600080516020613795833981519152604482015290519081900360640190fd5b600e546202a300600082116126fe576040805162461bcd60e51b815260206004820152601460248201527310da185b99d9481b9bdd081a5b9a5d1a585d195960621b604482015290519081900360640190fd5b8061270f428463ffffffff612fda16565b1015612750576040805162461bcd60e51b81526020600482018190526024820152600080516020613775833981519152604482015290519081900360640190fd5b6012805461276091600c916134d4565b507fa801e49d33e856d89d06e647753d9d9dda3d0b0520c4346290ada455a00cafcc6012604051808060200182810382528381815481526020019150805480156127fb57602002820191906000526020600020906000905b82829054906101000a90046001600160401b03166001600160401b0316815260200190600801906020826007010492830192600103820291508084116127b85790505b50509250505060405180910390a16000600e81905561281b601282613522565b505050565b612829336120c9565b6128645760405162461bcd60e51b81526004018080602001828103825260248152602001806136696024913960400191505060405180910390fd5b604080516020808252835181830152835133937fa6e9673b5d53b3fe3c62b6459720f9c2a1b129d4f69acb771404ba8681b6a9309386939092839283019185019080838360005b838110156128c35781810151838201526020016128ab565b50505050905090810190601f1680156128f05780820380516001836020036101000a031916815260200191505b509250505060405180910390a250565b6005546040805163089bb25f60e11b815290516000926001600160a01b03169163113764be916004808301926020929190829003018186803b158015611a9057600080fd5b61294d6120a7565b61298c576040805162461bcd60e51b81526020600482018190526024820152600080516020613795833981519152604482015290519081900360640190fd5b61012c8361ffff1611156129d15760405162461bcd60e51b815260040180806020018281038252602e8152602001806137dd602e913960400191505060405180910390fd5b60648361ffff1611612a145760405162461bcd60e51b815260040180806020018281038252602e81526020018061363b602e913960400191505060405180910390fd5b8161ffff168361ffff1611612a5a5760405162461bcd60e51b81526004018080602001828103825260468152602001806137056046913960600191505060405180910390fd5b8061ffff168261ffff1611612aa05760405162461bcd60e51b815260040180806020018281038252604c8152602001806138fc604c913960600191505060405180910390fd5b6013805461ffff191661ffff85811691821763ffff00001916620100008683169081029190911765ffff000000001916600160201b9286169283021790935542600f81905560408051938452602084019490945282840191909152606082015290517fc9e225c2db3e9f70966e6c0403de785bcda0172ec4e41111a6e8f4b85b1f30fb916080908290030190a1505050565b612b3a6120a7565b612b79576040805162461bcd60e51b81526020600482018190526024820152600080516020613795833981519152604482015290519081900360640190fd5b600f546202a30060008211612bcc576040805162461bcd60e51b815260206004820152601460248201527310da185b99d9481b9bdd081a5b9a5d1a585d195960621b604482015290519081900360640190fd5b80612bdd428463ffffffff612fda16565b1015612c1e576040805162461bcd60e51b81526020600482018190526024820152600080516020613775833981519152604482015290519081900360640190fd5b601354600b805464ffff000000191661ffff808416630100000081029290921766ffff0000000000191662010000850482166501000000000081029190911768ffff000000000000001916600160201b90950491909116600160381b81029490941790925560408051918252602082019290925280820192909252517f07ac9ce7dc4b2edb6435fb2255e9e867f357ef2052b982ce468442aa9d6c1d50916060908290030190a150506013805465ffffffffffff191690556000600f55565b612ce6336120c9565b612d215760405162461bcd60e51b81526004018080602001828103825260248152602001806136696024913960400191505060405180910390fd5b60408051428152905133917f1e61af503f1d7de21d5300094c18bf8700f82b2951a4d54dd2adda13f6b3da30919081900360200190a2565b612d616120a7565b612da0576040805162461bcd60e51b81526020600482018190526024820152600080516020613795833981519152604482015290519081900360640190fd5b6010546202a30060008211612df3576040805162461bcd60e51b815260206004820152601460248201527310da185b99d9481b9bdd081a5b9a5d1a585d195960621b604482015290519081900360640190fd5b80612e04428463ffffffff612fda16565b1015612e45576040805162461bcd60e51b81526020600482018190526024820152600080516020613775833981519152604482015290519081900360640190fd5b601354612e6490600690600160301b90046001600160a01b03166131cf565b601454612e82906006906001600160a01b031663ffffffff6132a116565b60135460145460408051600160301b9093046001600160a01b039081168452909116602083015280517f39b37f415e2f67e47284ea76be07eb83aea456a7f5457474f09e078d69a7c0279281900390910190a150506000601055601380546601000000000000600160d01b0319169055565b6202a30090565b612f036120a7565b612f42576040805162461bcd60e51b81526020600482018190526024820152600080516020613795833981519152604482015290519081900360640190fd5b612f4b81613373565b50565b612f57336120c9565b612f925760405162461bcd60e51b81526004018080602001828103825260248152602001806136696024913960400191505060405180910390fd5b604080518381526020810183905242818301529051849133917f7f7d7327762d01d2c4a552ea0be2bc5a76264574a80aa78083e691a840e509f29181900360600190a3505050565b600082821115613031576040805162461bcd60e51b815260206004820152601e60248201527f536166654d6174683a207375627472616374696f6e206f766572666c6f770000604482015290519081900360640190fd5b508082035b92915050565b6000808311613089576040805162461bcd60e51b8152602060048201526014602482015273155c19185d19481b9bdd081a5b9a5d1a585d195960621b604482015290519081900360640190fd5b600061309b428563ffffffff612fda16565b90508281106130ae576000915050613036565b6130be838263ffffffff612fda16565b915050613036565b60038201546001600160a01b03161561311c576040805162461bcd60e51b8152602060048201526013602482015272105b1c9958591e481a5b9a5d1a585b1a5e9959606a1b604482015290519081900360640190fd5b6003820180546001600160a01b039283166001600160a01b03199182161791829055600190930180549093169116179055565b6001546001600160a01b0316156131ad576040805162461bcd60e51b815260206004820152601f60248201527f746274634465706f736974546f6b656e20697320616c72656164792073657400604482015290519081900360640190fd5b600180546001600160a01b0319166001600160a01b0392909216919091179055565b60028201546001600160a01b03161561322f576040805162461bcd60e51b815260206004820152601c60248201527f466163746f72792073656c6563746f7220616c72656164792073657400000000604482015290519081900360640190fd5b6001600160a01b03811661327c576040805162461bcd60e51b815260206004820152600f60248201526e496e76616c6964206164647265737360881b604482015290519081900360640190fd5b60029190910180546001600160a01b0319166001600160a01b03909216919091179055565b60048201546001600160a01b031615613301576040805162461bcd60e51b815260206004820181905260248201527f46756c6c79206261636b656420666163746f727920616c726561647920736574604482015290519081900360640190fd5b6001600160a01b03811661334e576040805162461bcd60e51b815260206004820152600f60248201526e496e76616c6964206164647265737360881b604482015290519081900360640190fd5b60049190910180546001600160a01b0319166001600160a01b03909216919091179055565b6001600160a01b0381166133b85760405162461bcd60e51b81526004018080602001828103825260268152602001806136156026913960400191505060405180910390fd5b600080546040516001600160a01b03808516939216917f8be0079c531659141344cd1fd0a4f28419497f9722a3daafe3b4186f6b6457e091a3600080546001600160a01b0319166001600160a01b0392909216919091179055565b828054828255906000526020600020906003016004900481019282156134c45791602002820160005b8382111561348f5783356001600160401b031683826101000a8154816001600160401b0302191690836001600160401b03160217905550926020019260080160208160070104928301926001030261343c565b80156134c25782816101000a8154906001600160401b03021916905560080160208160070104928301926001030261348f565b505b506134d0929150613556565b5090565b828054828255906000526020600020906003016004900481019282156134c4576000526020600020916003016004900482015b828111156134c4578254825591600101919060010190613507565b81548183558181111561281b57600301600490048160030160049004836000526020600020918201910161281b919061357b565b610dbd91905b808211156134d057805467ffffffffffffffff1916815560010161355c565b610dbd91905b808211156134d0576000815560010161358156fe656d657267656e637950617573654e65774465706f736974732063616e206f6e6c792062652063616c6c6564206f6e6365656d657267656e637950617573654e65774465706f736974732063616e206f6e6c792062652063616c6c65642077697468696e203138302064617973206f6620696e697469616c697a6174696f6e4f776e61626c653a206e6577206f776e657220697320746865207a65726f2061646472657373496e697469616c20636f6c6c61746572616c697a65642070657263656e74206d757374206265203e3d203130302543616c6c6572206973206e6f7420617070726f76656420746f206c6f67206576656e74735369676e6572206665652064697669736f72206d7573742062652067726561746572207468616e20392c20666f722061207369676e6572206665652074686174206973203c3d203130254c6f742073697a6573206c657373207468616e20302e303030352042544320617265206e6f7420616c6c6f776564556e646572636f6c6c61746572616c697a6564207468726573686f6c64206d757374206265203c20696e697469616c20636f6c6c61746572616c697a65642070657263656e744b65657020666163746f727920646174612063616e206f6e6c792062652075706461746564206f6e6365476f7665726e616e63652064656c617920686173206e6f7420656c61707365644f776e61626c653a2063616c6c6572206973206e6f7420746865206f776e65724c6f742073697a65206172726179206d75737420616c7761797320636f6e7461696e203120425443496e697469616c20636f6c6c61746572616c697a65642070657263656e74206d757374206265203c3d2033303025466163746f72792073656c6563746f72206d7573742062652061206e6f6e7a65726f20616464726573734c6f742073697a65732067726561746572207468616e203130302042544320617265206e6f7420616c6c6f7765644e6577206465706f73697473206172652063757272656e746c7920616c6c6f7765644554482d6261636b656420666163746f7279206d7573742062652061206e6f6e7a65726f20616464726573735369676e6572206665652064697669736f72206d757374206265206c657373207468616e20353030302c20666f722061207369676e6572206665652074686174206973203e20302e30322553657665726520756e646572636f6c6c61746572616c697a6564207468726573686f6c64206d757374206265203c20756e646572636f6c6c61746572616c697a6564207468726573686f6c64a265627a7a72315820a701ec89eeb4a9dadeb7579aa11d9f80fa218ea65d5389ca5d27cbf66543f50e64736f6c63430005110032",
  "source": "pragma solidity 0.5.17;\n\nimport {TBTCSystem} from \"../../../contracts/system/TBTCSystem.sol\";\n\ncontract TBTCSystemStub is TBTCSystem {\n    address keepAddress = address(7);\n    uint256 oraclePrice = 10 ** 12;\n\n    constructor(address _priceFeed, address _relay)\n        // Set expected factory address to 0-address.\n        // Address is irelevant as test use forceMint function to bypass ACL\n        TBTCSystem(_priceFeed, _relay)\n    public {\n        // solium-disable-previous-line no-empty-blocks\n    }\n\n    function setOraclePrice(uint256 _oraclePrice) external {\n        oraclePrice = _oraclePrice;\n    }\n\n    /// @dev Override TBTCSystem.fetchBitcoinPrice, don't call out to the price feed.\n    function fetchBitcoinPrice() external view returns (uint256) {\n        return oraclePrice;\n    }\n\n    function setKeepAddress(address _keepAddress) external {\n        keepAddress = _keepAddress;\n    }\n\n    function requestNewKeep(uint256, uint256, uint256, uint256) external payable returns (address _keepAddress) {\n        return keepAddress;\n    }\n}\n",
  "sourcePath": "/home/alex/dev/src/tbtc/solidity/contracts/test/system/TBTCSystemStub.sol",
  "compiler": {
    "name": "solc",
    "version": "0.5.17+commit.d19bba13.Emscripten.clang"
  },
  "schemaVersion": "3.2.0",
  "updatedAt": "2020-07-29T22:11:57.038Z",
  "devdoc": {
    "methods": {
      "approvedToLog(address)": {
        "details": "checks tbtcDepositToken to see if the caller represents                     an existing deposit.                     We don't require this, so deposits are not bricked if the system borks.",
        "params": {
          "_caller": "The address of the calling contract."
        },
        "return": "True if approved, otherwise false."
      },
      "beginCollateralizationThresholdsUpdate(uint16,uint16,uint16)": {
        "details": "This can be finalized by calling `finalizeCollateralizationThresholdsUpdate`         Anytime after `governanceTimeDelay` has elapsed.",
        "params": {
          "_initialCollateralizedPercent": "default signing bond percent for new deposits",
          "_severelyUndercollateralizedThresholdPercent": "second undercollateralization trigger",
          "_undercollateralizedThresholdPercent": "first undercollateralization trigger"
        }
      },
      "beginEthBtcPriceFeedAddition(address)": {
        "details": "This can be finalized by calling `finalizeEthBtcPriceFeedAddition`      anytime after `priceFeedGovernanceTimeDelay` has elapsed."
      },
      "beginKeepFactorySingleShotUpdate(address,address)": {
        "details": "It can be finalized by calling `finalizeKeepFactorySingleShotUpdate`      any time after `governanceTimeDelay` has elapsed. This can be      called more than once until finalized to reset the values and      timer, but it can only be finalized once!",
        "params": {
          "_ethBackedFactory": "Address of the ETH-stake-based factory.",
          "_factorySelector": "Address of the keep factory selection strategy."
        }
      },
      "beginLotSizesUpdate(uint64[])": {
        "details": "Lot size array should always contain 10**8 satoshis (1 BTC) and         cannot contain values less than 50000 satoshis (0.0005 BTC) or         greater than 10**10 satoshis (100 BTC).         This can be finalized by calling `finalizeLotSizesUpdate`         anytime after `governanceTimeDelay` has elapsed.",
        "params": {
          "_lotSizes": "Array of allowed lot sizes."
        }
      },
      "beginSignerFeeDivisorUpdate(uint16)": {
        "details": "This can be finalized by calling `finalizeSignerFeeDivisorUpdate`         Anytime after `governanceTimeDelay` has elapsed.",
        "params": {
          "_signerFeeDivisor": "The signer fee divisor."
        }
      },
      "fetchBitcoinPrice()": {
        "details": "Override TBTCSystem.fetchBitcoinPrice, don't call out to the price feed."
      },
      "finalizeCollateralizationThresholdsUpdate()": {
        "details": "`beginCollateralizationThresholdsUpdate` must be called first, once `governanceTimeDelay`       has passed, this function can be called to set the collateralization thresholds to the       value set in `beginCollateralizationThresholdsUpdate`"
      },
      "finalizeEthBtcPriceFeedAddition()": {
        "details": "`beginEthBtcPriceFeedAddition` must be called first; once      `ethBtcPriceFeedAdditionInitiated` has passed, this function can be      called to append a new price feed."
      },
      "finalizeKeepFactorySingleShotUpdate()": {
        "details": "`beginKeepFactorySingleShotUpdate` must be called first; once      `governanceTimeDelay` has passed, this function can be called to      set the collateralization thresholds to the value set in      `beginKeepFactorySingleShotUpdate`."
      },
      "finalizeLotSizesUpdate()": {
        "details": "`beginLotSizesUpdate` must be called first, once `governanceTimeDelay`       has passed, this function can be called to set the lot sizes to the       value set in `beginLotSizesUpdate`"
      },
      "finalizeSignerFeeDivisorUpdate()": {
        "details": "`beginSignerFeeDivisorUpdate` must be called first, once `governanceTimeDelay`       has passed, this function can be called to set the signer fee divisor to the       value set in `beginSignerFeeDivisorUpdate`"
      },
      "getAllowNewDeposits()": {
        "return": "True if new deposits should be allowed by the emergency pause button"
      },
      "getAllowedLotSizes()": {
        "return": "Uint64 array of allowed lot sizes"
      },
      "getMaxLotSize()": {
        "return": "The largest lot size, in satoshis."
      },
      "getNewDepositFeeEstimate()": {
        "return": "Uint256 estimate."
      },
      "getSignerFeeDivisor()": {
        "return": "The signer fee divisor."
      },
      "initialize(address,address,address,address,address,address,address,uint16,uint16)": {
        "details": "Only the Deposit factory should call this, and only once.",
        "params": {
          "_defaultKeepFactory": "ECDSA keep factory backed by KEEP stake.",
          "_depositFactory": "Deposit Factory. More info in `DepositFactory`.",
          "_feeRebateToken": "FeeRebateToken (FRT). More info in `FeeRebateToken`.",
          "_keepSize": "Signing group size.",
          "_keepThreshold": "Signing group honesty threshold.",
          "_masterDepositAddress": "Master Deposit address. More info in `Deposit`.",
          "_tbtcDepositToken": "TBTCDepositToken (TDT). More info in `TBTCDepositToken`.",
          "_tbtcToken": "TBTCToken. More info in `TBTCToken`."
        }
      },
      "isAllowedLotSize(uint64)": {
        "params": {
          "_lotSizeSatoshis": "Lot size to check."
        },
        "return": "True if lot size is allowed, false otherwise."
      },
      "isOwner()": {
        "details": "Returns true if the caller is the current owner."
      },
      "logCourtesyCalled()": {
        "details": "We append the sender, which is the deposit contract that called."
      },
      "logCreated(address)": {
        "details": "We append the sender, which is the deposit contract that called.",
        "params": {
          "_keepAddress": "The address of the associated keep."
        },
        "return": "True if successful, else revert."
      },
      "logExitedCourtesyCall()": {
        "details": "We append the sender, which is the deposit contract that called."
      },
      "logFraudDuringSetup()": {
        "details": "We append the sender, which is the deposit contract that called."
      },
      "logFunded(bytes32)": {
        "details": "We append the sender, which is the deposit contract that called."
      },
      "logFunderRequestedAbort(bytes)": {
        "details": "We append the sender, which is the deposit contract that called."
      },
      "logGotRedemptionSignature(bytes32,bytes32,bytes32)": {
        "details": "We append the sender, which is the deposit contract that called.",
        "params": {
          "_digest": "signed digest.",
          "_r": "signature r value.",
          "_s": "signature s value."
        }
      },
      "logLiquidated()": {
        "details": "We append the sender, which is the deposit contract that called."
      },
      "logRedeemed(bytes32)": {
        "details": "We append the sender, which is the deposit contract that called."
      },
      "logRedemptionRequested(address,bytes32,uint256,bytes,uint256,bytes)": {
        "details": "This is the only event without an explicit timestamp.",
        "params": {
          "_digest": "The calculated sighash digest.",
          "_outpoint": "The 36 byte outpoint.",
          "_redeemerOutputScript": "The redeemer's length-prefixed output script.",
          "_requestedFee": "The requester or bump-system specified fee.",
          "_requester": "The ethereum address of the requester.",
          "_utxoValue": "The size of the utxo in sat."
        },
        "return": "True if successful, else revert."
      },
      "logRegisteredPubkey(bytes32,bytes32)": {
        "details": "We append the sender, which is the deposit contract that called."
      },
      "logSetupFailed()": {
        "details": "We append the sender, which is the deposit contract that called."
      },
      "logStartedLiquidation(bool)": {
        "details": "We append the sender, which is the deposit contract that called.",
        "params": {
          "_wasFraud": "True if liquidating for fraud."
        }
      },
      "owner()": {
        "details": "Returns the address of the current owner."
      },
      "renounceOwnership()": {
        "details": "Leaves the contract without owner. It will not be possible to call `onlyOwner` functions anymore. Can only be called by the current owner.     * > Note: Renouncing ownership will leave the contract without an owner, thereby removing any functionality that is only available to the owner."
      },
      "transferOwnership(address)": {
        "details": "Transfers ownership of the contract to a new account (`newOwner`). Can only be called by the current owner."
      }
    }
  },
  "userdoc": {
    "methods": {
      "approvedToLog(address)": {
        "notice": "Checks if an address is an allowed logger."
      },
      "beginCollateralizationThresholdsUpdate(uint16,uint16,uint16)": {
        "notice": "Set the system collateralization levels"
      },
      "beginEthBtcPriceFeedAddition(address)": {
        "notice": "Add a new ETH/BTC price feed contract to the priecFeed."
      },
      "beginKeepFactorySingleShotUpdate(address,address)": {
        "notice": "Sets the address of the ETH-only-backed ECDSA keep factory and         the selection strategy that will choose between it and the         default KEEP-backed factory for new deposits. When the         ETH-only-backed factory and strategy are set, TBTCSystem load         balances between two factories based on the selection strategy."
      },
      "beginLotSizesUpdate(uint64[])": {
        "notice": "Set the allowed deposit lot sizes."
      },
      "beginSignerFeeDivisorUpdate(uint16)": {
        "notice": "Set the system signer fee divisor."
      },
      "emergencyPauseNewDeposits()": {
        "notice": "One-time-use emergency function to disallow future deposit creation for 10 days."
      },
      "finalizeCollateralizationThresholdsUpdate()": {
        "notice": "Finish setting the system collateralization levels"
      },
      "finalizeEthBtcPriceFeedAddition()": {
        "notice": "Finish adding a new price feed contract to the priceFeed."
      },
      "finalizeKeepFactorySingleShotUpdate()": {
        "notice": "Finish setting the address of the ETH-only-backed ECDSA keep         factory and the selection strategy that will choose between it         and the default KEEP-backed factory for new deposits."
      },
      "finalizeLotSizesUpdate()": {
        "notice": "Finish setting the accepted system lot sizes."
      },
      "finalizeSignerFeeDivisorUpdate()": {
        "notice": "Finish setting the system signer fee divisor."
      },
      "getAllowNewDeposits()": {
        "notice": "Returns whether new deposits should be allowed."
      },
      "getAllowedLotSizes()": {
        "notice": "Gets the allowed lot sizes"
      },
      "getGovernanceTimeDelay()": {
        "notice": "Returns the time delay used for governance actions except for         price feed additions."
      },
      "getInitialCollateralizedPercent()": {
        "notice": "Get the system initial collateralized level for new deposits."
      },
      "getMaxLotSize()": {
        "notice": "Return the largest lot size currently enabled for deposits."
      },
      "getNewDepositFeeEstimate()": {
        "notice": "Gets a fee estimate for creating a new Deposit."
      },
      "getPriceFeedGovernanceTimeDelay()": {
        "notice": "Returns the time delay used for price feed addition governance         actions."
      },
      "getRemainingCollateralizationThresholdsUpdateTime()": {
        "notice": "Get the time remaining until the collateralization thresholds can be updated."
      },
      "getRemainingEthBtcPriceFeedAdditionTime()": {
        "notice": "Get the time remaining until the signer fee divisor can be updated."
      },
      "getRemainingKeepFactorySingleShotUpdateTime()": {
        "notice": "Get the time remaining until the Keep ETH-only-backed ECDSA keep         factory and the selection strategy that will choose between it         and the KEEP-backed factory can be updated."
      },
      "getRemainingLotSizesUpdateTime()": {
        "notice": "Get the time remaining until the lot sizes can be updated."
      },
      "getRemainingSignerFeeDivisorUpdateTime()": {
        "notice": "Get the time remaining until the signer fee divisor can be updated."
      },
      "getSeverelyUndercollateralizedThresholdPercent()": {
        "notice": "Get the system severe undercollateralization level for new deposits"
      },
      "getSignerFeeDivisor()": {
        "notice": "Gets the system signer fee divisor."
      },
      "getUndercollateralizedThresholdPercent()": {
        "notice": "Get the system undercollateralization level for new deposits"
      },
      "initialize(address,address,address,address,address,address,address,uint16,uint16)": {
        "notice": "Initialize contracts"
      },
      "isAllowedLotSize(uint64)": {
        "notice": "Check if a lot size is allowed."
      },
      "logCourtesyCalled()": {
        "notice": "Fires a CourtesyCalled event."
      },
      "logCreated(address)": {
        "notice": "Fires a Created event."
      },
      "logExitedCourtesyCall()": {
        "notice": "Fires a ExitedCourtesyCall event"
      },
      "logFraudDuringSetup()": {
        "notice": "Fires a FraudDuringSetup event."
      },
      "logFunded(bytes32)": {
        "notice": "Fires a Funded event."
      },
      "logFunderRequestedAbort(bytes)": {
        "notice": "Fires a FunderAbortRequested event."
      },
      "logGotRedemptionSignature(bytes32,bytes32,bytes32)": {
        "notice": "Fires a GotRedemptionSignature event."
      },
      "logLiquidated()": {
        "notice": "Fires a Liquidated event"
      },
      "logRedeemed(bytes32)": {
        "notice": "Fires a Redeemed event"
      },
      "logRedemptionRequested(address,bytes32,uint256,bytes,uint256,bytes)": {
        "notice": "Fires a RedemptionRequested event."
      },
      "logRegisteredPubkey(bytes32,bytes32)": {
        "notice": "Fires a RegisteredPubkey event."
      },
      "logSetupFailed()": {
        "notice": "Fires a SetupFailed event."
      },
      "logStartedLiquidation(bool)": {
        "notice": "Fires a StartedLiquidation event."
      },
      "resumeNewDeposits()": {
        "notice": "Anyone can reactivate deposit creations after the pause duration is over."
      }
    }
  }
}